{
  "_format": "hh-sol-artifact-1",
  "contractName": "NFTMarket",
  "sourceName": "contracts/NFTMarket.sol",
  "abi": [
    {
      "inputs": [],
      "stateMutability": "nonpayable",
      "type": "constructor"
    },
    {
      "anonymous": false,
      "inputs": [
        {
          "indexed": true,
          "internalType": "uint256",
          "name": "itemId",
          "type": "uint256"
        },
        {
          "indexed": true,
          "internalType": "address",
          "name": "nftContract",
          "type": "address"
        },
        {
          "indexed": true,
          "internalType": "uint256",
          "name": "tokenId",
          "type": "uint256"
        },
        {
          "indexed": false,
          "internalType": "address",
          "name": "seller",
          "type": "address"
        },
        {
          "indexed": false,
          "internalType": "address",
          "name": "owner",
          "type": "address"
        },
        {
          "indexed": false,
          "internalType": "uint256",
          "name": "price",
          "type": "uint256"
        },
        {
          "indexed": false,
          "internalType": "bool",
          "name": "sold",
          "type": "bool"
        }
      ],
      "name": "MarketItemCreated",
      "type": "event"
    },
    {
      "inputs": [
        {
          "internalType": "address",
          "name": "nftContract",
          "type": "address"
        },
        {
          "internalType": "uint256",
          "name": "tokenId",
          "type": "uint256"
        },
        {
          "internalType": "uint256",
          "name": "price",
          "type": "uint256"
        }
      ],
      "name": "createMarketItem",
      "outputs": [],
      "stateMutability": "payable",
      "type": "function"
    },
    {
      "inputs": [
        {
          "internalType": "address",
          "name": "nftContract",
          "type": "address"
        },
        {
          "internalType": "uint256",
          "name": "itemId",
          "type": "uint256"
        }
      ],
      "name": "createMarketSale",
      "outputs": [],
      "stateMutability": "payable",
      "type": "function"
    },
    {
      "inputs": [],
      "name": "fetchItemsCreated",
      "outputs": [
        {
          "components": [
            {
              "internalType": "uint256",
              "name": "itemId",
              "type": "uint256"
            },
            {
              "internalType": "address",
              "name": "nftContract",
              "type": "address"
            },
            {
              "internalType": "uint256",
              "name": "tokenId",
              "type": "uint256"
            },
            {
              "internalType": "address payable",
              "name": "seller",
              "type": "address"
            },
            {
              "internalType": "address payable",
              "name": "owner",
              "type": "address"
            },
            {
              "internalType": "uint256",
              "name": "price",
              "type": "uint256"
            },
            {
              "internalType": "bool",
              "name": "sold",
              "type": "bool"
            }
          ],
          "internalType": "struct NFTMarket.MarketItem[]",
          "name": "",
          "type": "tuple[]"
        }
      ],
      "stateMutability": "view",
      "type": "function"
    },
    {
      "inputs": [],
      "name": "fetchMarketItems",
      "outputs": [
        {
          "components": [
            {
              "internalType": "uint256",
              "name": "itemId",
              "type": "uint256"
            },
            {
              "internalType": "address",
              "name": "nftContract",
              "type": "address"
            },
            {
              "internalType": "uint256",
              "name": "tokenId",
              "type": "uint256"
            },
            {
              "internalType": "address payable",
              "name": "seller",
              "type": "address"
            },
            {
              "internalType": "address payable",
              "name": "owner",
              "type": "address"
            },
            {
              "internalType": "uint256",
              "name": "price",
              "type": "uint256"
            },
            {
              "internalType": "bool",
              "name": "sold",
              "type": "bool"
            }
          ],
          "internalType": "struct NFTMarket.MarketItem[]",
          "name": "",
          "type": "tuple[]"
        }
      ],
      "stateMutability": "view",
      "type": "function"
    },
    {
      "inputs": [],
      "name": "fetchMyNFTs",
      "outputs": [
        {
          "components": [
            {
              "internalType": "uint256",
              "name": "itemId",
              "type": "uint256"
            },
            {
              "internalType": "address",
              "name": "nftContract",
              "type": "address"
            },
            {
              "internalType": "uint256",
              "name": "tokenId",
              "type": "uint256"
            },
            {
              "internalType": "address payable",
              "name": "seller",
              "type": "address"
            },
            {
              "internalType": "address payable",
              "name": "owner",
              "type": "address"
            },
            {
              "internalType": "uint256",
              "name": "price",
              "type": "uint256"
            },
            {
              "internalType": "bool",
              "name": "sold",
              "type": "bool"
            }
          ],
          "internalType": "struct NFTMarket.MarketItem[]",
          "name": "",
          "type": "tuple[]"
        }
      ],
      "stateMutability": "view",
      "type": "function"
    },
    {
      "inputs": [],
      "name": "getListingPrice",
      "outputs": [
        {
          "internalType": "uint256",
          "name": "",
          "type": "uint256"
        }
      ],
      "stateMutability": "view",
      "type": "function"
    },
    {
      "inputs": [
        {
          "internalType": "uint256",
          "name": "_price",
          "type": "uint256"
        }
      ],
      "name": "setListingPrice",
      "outputs": [
        {
          "internalType": "uint256",
          "name": "",
          "type": "uint256"
        }
      ],
      "stateMutability": "nonpayable",
      "type": "function"
    }
  ],
  "bytecode": "0x60806040526658d15e1762800060045534801561001b57600080fd5b50600160008190555033600360006101000a81548173ffffffffffffffffffffffffffffffffffffffff021916908373ffffffffffffffffffffffffffffffffffffffff1602179055506119cb806100746000396000f3fe6080604052600436106100705760003560e01c806358eb2df51161004e57806358eb2df5146100f65780637c726b6914610112578063c23b139e1461014f578063f064c32e1461016b57610070565b80630f08efe01461007557806312e85585146100a0578063202e3740146100cb575b600080fd5b34801561008157600080fd5b5061008a610196565b60405161009791906115b1565b60405180910390f35b3480156100ac57600080fd5b506100b5610476565b6040516100c29190611653565b60405180910390f35b3480156100d757600080fd5b506100e0610480565b6040516100ed91906115b1565b60405180910390f35b610110600480360381019061010b91906112bc565b6107e4565b005b34801561011e57600080fd5b506101396004803603810190610134919061130f565b610b48565b6040516101469190611653565b60405180910390f35b6101696004803603810190610164919061127c565b610b90565b005b34801561017757600080fd5b50610180610e49565b60405161018d91906115b1565b60405180910390f35b606060006101a460016111ad565b905060006101b260026111ad565b6101bc60016111ad565b6101c6919061170e565b90506000808267ffffffffffffffff8111156101e5576101e4611843565b5b60405190808252806020026020018201604052801561021e57816020015b61020b6111d1565b8152602001906001900390816102035790505b50905060005b8481101561046b57600073ffffffffffffffffffffffffffffffffffffffff166005600060018461025591906116b8565b815260200190815260200160002060040160009054906101000a900473ffffffffffffffffffffffffffffffffffffffff1673ffffffffffffffffffffffffffffffffffffffff161415610458576000600560006001846102b691906116b8565b81526020019081526020016000206000015490506000600560008381526020019081526020016000209050806040518060e0016040529081600082015481526020016001820160009054906101000a900473ffffffffffffffffffffffffffffffffffffffff1673ffffffffffffffffffffffffffffffffffffffff1673ffffffffffffffffffffffffffffffffffffffff168152602001600282015481526020016003820160009054906101000a900473ffffffffffffffffffffffffffffffffffffffff1673ffffffffffffffffffffffffffffffffffffffff1673ffffffffffffffffffffffffffffffffffffffff1681526020016004820160009054906101000a900473ffffffffffffffffffffffffffffffffffffffff1673ffffffffffffffffffffffffffffffffffffffff1673ffffffffffffffffffffffffffffffffffffffff168152602001600582015481526020016006820160009054906101000a900460ff16151515158152505084868151811061043b5761043a611814565b5b602002602001018190525060018561045391906116b8565b945050505b80806104639061179c565b915050610224565b508094505050505090565b6000600454905090565b6060600061048e60016111ad565b905060008060005b83811015610537573373ffffffffffffffffffffffffffffffffffffffff16600560006001846104c691906116b8565b815260200190815260200160002060040160009054906101000a900473ffffffffffffffffffffffffffffffffffffffff1673ffffffffffffffffffffffffffffffffffffffff1614156105245760018361052191906116b8565b92505b808061052f9061179c565b915050610496565b5060008267ffffffffffffffff81111561055457610553611843565b5b60405190808252806020026020018201604052801561058d57816020015b61057a6111d1565b8152602001906001900390816105725790505b50905060005b848110156107d9573373ffffffffffffffffffffffffffffffffffffffff16600560006001846105c391906116b8565b815260200190815260200160002060040160009054906101000a900473ffffffffffffffffffffffffffffffffffffffff1673ffffffffffffffffffffffffffffffffffffffff1614156107c65760006005600060018461062491906116b8565b81526020019081526020016000206000015490506000600560008381526020019081526020016000209050806040518060e0016040529081600082015481526020016001820160009054906101000a900473ffffffffffffffffffffffffffffffffffffffff1673ffffffffffffffffffffffffffffffffffffffff1673ffffffffffffffffffffffffffffffffffffffff168152602001600282015481526020016003820160009054906101000a900473ffffffffffffffffffffffffffffffffffffffff1673ffffffffffffffffffffffffffffffffffffffff1673ffffffffffffffffffffffffffffffffffffffff1681526020016004820160009054906101000a900473ffffffffffffffffffffffffffffffffffffffff1673ffffffffffffffffffffffffffffffffffffffff1673ffffffffffffffffffffffffffffffffffffffff168152602001600582015481526020016006820160009054906101000a900460ff1615151515815250508486815181106107a9576107a8611814565b5b60200260200101819052506001856107c191906116b8565b945050505b80806107d19061179c565b915050610593565b508094505050505090565b6002600054141561082a576040517f08c379a000000000000000000000000000000000000000000000000000000000815260040161082190611633565b60405180910390fd5b600260008190555060008111610875576040517f08c379a000000000000000000000000000000000000000000000000000000000815260040161086c906115f3565b60405180910390fd5b60045434146108b9576040517f08c379a00000000000000000000000000000000000000000000000000000000081526004016108b090611613565b60405180910390fd5b6108c360016111bb565b60006108cf60016111ad565b90506040518060e001604052808281526020018573ffffffffffffffffffffffffffffffffffffffff1681526020018481526020013373ffffffffffffffffffffffffffffffffffffffff168152602001600073ffffffffffffffffffffffffffffffffffffffff16815260200183815260200160001515815250600560008381526020019081526020016000206000820151816000015560208201518160010160006101000a81548173ffffffffffffffffffffffffffffffffffffffff021916908373ffffffffffffffffffffffffffffffffffffffff1602179055506040820151816002015560608201518160030160006101000a81548173ffffffffffffffffffffffffffffffffffffffff021916908373ffffffffffffffffffffffffffffffffffffffff16021790555060808201518160040160006101000a81548173ffffffffffffffffffffffffffffffffffffffff021916908373ffffffffffffffffffffffffffffffffffffffff16021790555060a0820151816005015560c08201518160060160006101000a81548160ff0219169083151502179055509050508373ffffffffffffffffffffffffffffffffffffffff166323b872dd3330866040518463ffffffff1660e01b8152600401610ab093929190611535565b600060405180830381600087803b158015610aca57600080fd5b505af1158015610ade573d6000803e3d6000fd5b50505050828473ffffffffffffffffffffffffffffffffffffffff16827f045dfa01dcba2b36aba1d3dc4a874f4b0c5d2fbeb8d2c4b34a7d88c8d8f929d1336000876000604051610b32949392919061156c565b60405180910390a4506001600081905550505050565b60003073ffffffffffffffffffffffffffffffffffffffff163373ffffffffffffffffffffffffffffffffffffffff161415610b8657816004819055505b6004549050919050565b60026000541415610bd6576040517f08c379a0000000000000000000000000000000000000000000000000000000008152600401610bcd90611633565b60405180910390fd5b6002600081905550600060056000838152602001908152602001600020600501549050600060056000848152602001908152602001600020600201549050813414610c56576040517f08c379a0000000000000000000000000000000000000000000000000000000008152600401610c4d906115d3565b60405180910390fd5b6005600084815260200190815260200160002060030160009054906101000a900473ffffffffffffffffffffffffffffffffffffffff1673ffffffffffffffffffffffffffffffffffffffff166108fc349081150290604051600060405180830381858888f19350505050158015610cd2573d6000803e3d6000fd5b508373ffffffffffffffffffffffffffffffffffffffff166323b872dd3033846040518463ffffffff1660e01b8152600401610d1093929190611535565b600060405180830381600087803b158015610d2a57600080fd5b505af1158015610d3e573d6000803e3d6000fd5b50505050336005600085815260200190815260200160002060040160006101000a81548173ffffffffffffffffffffffffffffffffffffffff021916908373ffffffffffffffffffffffffffffffffffffffff16021790555060016005600085815260200190815260200160002060060160006101000a81548160ff021916908315150217905550610dd060026111bb565b600360009054906101000a900473ffffffffffffffffffffffffffffffffffffffff1673ffffffffffffffffffffffffffffffffffffffff166108fc6004549081150290604051600060405180830381858888f19350505050158015610e3a573d6000803e3d6000fd5b50505060016000819055505050565b60606000610e5760016111ad565b905060008060005b83811015610f00573373ffffffffffffffffffffffffffffffffffffffff1660056000600184610e8f91906116b8565b815260200190815260200160002060030160009054906101000a900473ffffffffffffffffffffffffffffffffffffffff1673ffffffffffffffffffffffffffffffffffffffff161415610eed57600183610eea91906116b8565b92505b8080610ef89061179c565b915050610e5f565b5060008267ffffffffffffffff811115610f1d57610f1c611843565b5b604051908082528060200260200182016040528015610f5657816020015b610f436111d1565b815260200190600190039081610f3b5790505b50905060005b848110156111a2573373ffffffffffffffffffffffffffffffffffffffff1660056000600184610f8c91906116b8565b815260200190815260200160002060030160009054906101000a900473ffffffffffffffffffffffffffffffffffffffff1673ffffffffffffffffffffffffffffffffffffffff16141561118f57600060056000600184610fed91906116b8565b81526020019081526020016000206000015490506000600560008381526020019081526020016000209050806040518060e0016040529081600082015481526020016001820160009054906101000a900473ffffffffffffffffffffffffffffffffffffffff1673ffffffffffffffffffffffffffffffffffffffff1673ffffffffffffffffffffffffffffffffffffffff168152602001600282015481526020016003820160009054906101000a900473ffffffffffffffffffffffffffffffffffffffff1673ffffffffffffffffffffffffffffffffffffffff1673ffffffffffffffffffffffffffffffffffffffff1681526020016004820160009054906101000a900473ffffffffffffffffffffffffffffffffffffffff1673ffffffffffffffffffffffffffffffffffffffff1673ffffffffffffffffffffffffffffffffffffffff168152602001600582015481526020016006820160009054906101000a900460ff16151515158152505084868151811061117257611171611814565b5b602002602001018190525060018561118a91906116b8565b945050505b808061119a9061179c565b915050610f5c565b508094505050505090565b600081600001549050919050565b6001816000016000828254019250508190555050565b6040518060e0016040528060008152602001600073ffffffffffffffffffffffffffffffffffffffff16815260200160008152602001600073ffffffffffffffffffffffffffffffffffffffff168152602001600073ffffffffffffffffffffffffffffffffffffffff168152602001600081526020016000151581525090565b60008135905061126181611967565b92915050565b6000813590506112768161197e565b92915050565b6000806040838503121561129357611292611872565b5b60006112a185828601611252565b92505060206112b285828601611267565b9150509250929050565b6000806000606084860312156112d5576112d4611872565b5b60006112e386828701611252565b93505060206112f486828701611267565b925050604061130586828701611267565b9150509250925092565b60006020828403121561132557611324611872565b5b600061133384828501611267565b91505092915050565b60006113488383611489565b60e08301905092915050565b61135d81611754565b82525050565b61136c81611742565b82525050565b61137b81611742565b82525050565b600061138c8261167e565b6113968185611696565b93506113a18361166e565b8060005b838110156113d25781516113b9888261133c565b97506113c483611689565b9250506001810190506113a5565b5085935050505092915050565b6113e881611766565b82525050565b6113f781611766565b82525050565b600061140a603c836116a7565b915061141582611877565b604082019050919050565b600061142d6018836116a7565b9150611438826118c6565b602082019050919050565b60006114506024836116a7565b915061145b826118ef565b604082019050919050565b6000611473601f836116a7565b915061147e8261193e565b602082019050919050565b60e08201600082015161149f6000850182611517565b5060208201516114b26020850182611363565b5060408201516114c56040850182611517565b5060608201516114d86060850182611354565b5060808201516114eb6080850182611354565b5060a08201516114fe60a0850182611517565b5060c082015161151160c08501826113df565b50505050565b61152081611792565b82525050565b61152f81611792565b82525050565b600060608201905061154a6000830186611372565b6115576020830185611372565b6115646040830184611526565b949350505050565b60006080820190506115816000830187611372565b61158e6020830186611372565b61159b6040830185611526565b6115a860608301846113ee565b95945050505050565b600060208201905081810360008301526115cb8184611381565b905092915050565b600060208201905081810360008301526115ec816113fd565b9050919050565b6000602082019050818103600083015261160c81611420565b9050919050565b6000602082019050818103600083015261162c81611443565b9050919050565b6000602082019050818103600083015261164c81611466565b9050919050565b60006020820190506116686000830184611526565b92915050565b6000819050602082019050919050565b600081519050919050565b6000602082019050919050565b600082825260208201905092915050565b600082825260208201905092915050565b60006116c382611792565b91506116ce83611792565b9250827fffffffffffffffffffffffffffffffffffffffffffffffffffffffffffffffff03821115611703576117026117e5565b5b828201905092915050565b600061171982611792565b915061172483611792565b925082821015611737576117366117e5565b5b828203905092915050565b600061174d82611772565b9050919050565b600061175f82611772565b9050919050565b60008115159050919050565b600073ffffffffffffffffffffffffffffffffffffffff82169050919050565b6000819050919050565b60006117a782611792565b91507fffffffffffffffffffffffffffffffffffffffffffffffffffffffffffffffff8214156117da576117d96117e5565b5b600182019050919050565b7f4e487b7100000000000000000000000000000000000000000000000000000000600052601160045260246000fd5b7f4e487b7100000000000000000000000000000000000000000000000000000000600052603260045260246000fd5b7f4e487b7100000000000000000000000000000000000000000000000000000000600052604160045260246000fd5b600080fd5b7f506c65617365207375626d6974207468652061736b696e67207072696365206960008201527f6e206f7264657220746f20636f6d706c65746520707572636861736500000000602082015250565b7f5072696365206d7573742062652061626f7665207a65726f0000000000000000600082015250565b7f5072696365206d75737420626520657175616c20746f206c697374696e67207060008201527f7269636500000000000000000000000000000000000000000000000000000000602082015250565b7f5265656e7472616e637947756172643a207265656e7472616e742063616c6c00600082015250565b61197081611742565b811461197b57600080fd5b50565b61198781611792565b811461199257600080fd5b5056fea264697066735822122076174ef671392ac9aaf956417187034dd66c99e90b0f070b239a4b948e955edb64736f6c63430008070033",
  "linkReferences": {},
  "deployedLinkReferences": {}
}